:100000000C9462000C948A000C948A000C948A0070
:100010000C948A000C948A000C948A000C948A0038
:100020000C948A000C948A000C948A000C948A0028
:100030000C948A000C948A000C948A000C948A0018
:100040000C946F080C948A000C943D080C941708CB
:100050000C948A000C948A000C948A000C948A00F8
:100060000C94B9080C948A000000000024002700BA
:100070002A0000000000250028002B0000000008D6
:10008000000201000003040700000000000000005F
:1000900000000000230026002900040404040404D6
:1000A0000404020202020202030303030303010227
:1000B00004081020408001020408102001020408F6
:1000C0001020D80911241FBECFEFD8E0DEBFCDBF6E
:1000D00011E0A0E0B1E0E4E1FBE102C005900D9287
:1000E000AE35B107D9F722E0AEE5B1E001C01D920F
:1000F000A63FB207E1F710E0C2E6D0E004C02197C6
:10010000FE010E947D0DC136D107C9F70E94560A33
:100110000C94880D0C940000CF92DF92EF92FF9226
:10012000CF93DF93B091EA02A0E08111AB2F8091D1
:10013000EB0290E0880F991FAC0140575F4FC090D1
:10014000F002D090F102E090F202F090F30230E081
:1001500020E0FA01C591D491E881B90190E080E0F6
:10016000EB23EA130AC02F5F3F4F6C157D058E0508
:100170009F0578F36FEF7FEFCB01DF91CF91FF9079
:10018000EF90DF90CF900895FC01538D448D252F83
:1001900030E0842F90E0821B930B541710F0CF9621
:1001A000089501970895FC01918D828D981761F053
:1001B000A28DAE0FBF2FB11D5D968C91928D9F5F6A
:1001C0009F73928F90E008958FEF9FEF0895FC0149
:1001D000918D828D981731F0828DE80FF11D858DFC
:1001E00090E008958FEF9FEF0895FC01918D228D8F
:1001F000892F90E0805C9F4F821B91098F73992714
:100200000895FC01A48DA80FB92FB11DA35ABF4FAB
:100210002C91848D90E001968F739927848FA68905
:10022000B7892C93A089B1898C91837080648C9359
:10023000938D848D981306C00288F389E02D808108
:100240008F7D80830895EF92FF920F931F93CF933A
:10025000DF93EC0181E0888F9B8D8C8D98131AC001
:10026000E889F989808185FF15C09FB7F894EE89E8
:10027000FF896083E889F989808183708064808345
:100280009FBF81E090E0DF91CF911F910F91FF9090
:10029000EF900895F62E0B8D10E00F5F1F4F0F7338
:1002A0001127E02E8C8D8E110CC00FB607FCFACFF3
:1002B000E889F989808185FFF5CFCE010E9401018F
:1002C000F1CFEB8DEC0FFD2FF11DE35AFF4FF082C4
:1002D0009FB7F8940B8FEA89FB8980818062CFCF2A
:1002E000CF93DF93EC01888D8823B9F0AA89BB896D
:1002F000E889F9898C9185FD03C0808186FD0DC058
:100300000FB607FCF7CF8C9185FFF2CF808185FF78
:10031000EDCFCE010E940101E9CFDF91CF91089589
:1003200081E292E00E94F50021E0892B09F420E0AF
:10033000822F089580E090E0892B29F00E9490019F
:1003400081110C9400000895AF92BF92CF92DF927A
:10035000EF92FF920F931F93CF93DF936C017B017A
:100360008B01040F151FEB015E01AE18BF08C0170B
:10037000D10759F06991D601ED91FC910190F0817E
:10038000E02DC6010995892B79F7C501DF91CF9141
:100390001F910F91FF90EF90DF90CF90BF90AF90A3
:1003A000089590E0FC01E458FF4F2491FC01E255D0
:1003B000FF4F3491FC01E656FF4FE491EE23C9F064
:1003C000222339F0233001F1A8F4213019F1223031
:1003D00029F1F0E0EE0FFF1FEE58FF4FA591B49109
:1003E0008FB7F894EC91611126C030953E233C9371
:1003F0008FBF08952730A9F02830C9F0243049F77D
:10040000809180008F7D03C0809180008F778093E2
:100410008000DFCF84B58F7784BDDBCF84B58F7D3F
:10042000FBCF8091B0008F778093B000D2CF8091C6
:10043000B0008F7DF9CF3E2BDACFCF93DF9390E0E2
:10044000FC01E255FF4F249186569F4FFC01849199
:100450008823D1F090E0880F991FFC01E859FF4FE5
:10046000A591B491FC01EE58FF4FC591D491623033
:1004700071F49FB7F8943C91822F809583238C93DD
:10048000E8812E2B28839FBFDF91CF9108958FB7EE
:10049000F894EC912E2B2C938FBFF6CF3FB7F894A6
:1004A0008091C9019091CA01A091CB01B091CC017A
:1004B00026B5A89B05C02F3F19F00196A11DB11DBF
:1004C0003FBFBA2FA92F982F8827BC01CD01620FFB
:1004D000711D811D911D42E0660F771F881F991FB6
:1004E0004A95D1F708958F929F92AF92BF92CF9283
:1004F000DF92EF92FF924B015C010E944E026B0172
:100500007C010E944E026C197D098E099F09683E8C
:10051000734081059105A8F321E0821A9108A10892
:10052000B10888EEC80E83E0D81EE11CF11C8114CE
:100530009104A104B10429F7FF90EF90DF90CF90D0
:10054000BF90AF909F908F900895CF92DF92EF92DF
:10055000FF920F931F93CF93DF93CDB7DEB7C054B5
:10056000D1400FB6F894DEBF0FBECDBF2FB7F894C1
:1005700080911D0290911E02A0911F02B091200255
:100580002FBF4091EC025091ED026091EE0270910C
:10059000EF028C019D01041B150B260B370BB901D3
:1005A000A801403D57406105710590F48091F40227
:1005B000C05CDE4F0FB6F894DEBF0FBECDBFDF913B
:1005C000CF911F910F91FF90EF90DF90CF90089502
:1005D0008093EC029093ED02A093EE02B093EF02B1
:1005E0001092E7021092E6021092E5021092E402E5
:1005F0001092E30262E08091E8020E941D0261E035
:1006000070E080E090E00E94730261E08091E80277
:100610000E941D0260E08091E8020E94D101809159
:10062000E9028551823020F58BE291E10197F1F7E3
:1006300062E08091E8020E941D028091F50290E044
:100640008230910538F0880F991F880F991F059700
:100650000197F1F7F89480E00E948C006F3F7F4F84
:100660008F4F9F4F61F41092F402789480E0A0CFF6
:1006700064E170E080E090E00E947302D9CF81E0F5
:100680000E948C006F3F7F4F8F4F9F4F61F38E0111
:100690000F5F1F4F6E018FEBC81A8EEFD80A7801DB
:1006A00080E00E948C00F7016083718382839383D2
:1006B00081E00E948C00F7016483758386839783B1
:1006C000F8E0EF0EF11CEC14FD0451F7789430E0E3
:1006D00020E0F801C080D180E280F3804481558120
:1006E00066817781FFEFCF16DF06EF06FF0631F058
:1006F0004F3F8FEF58076807780719F41092F402FC
:10070000B5CFF90183E0F595E7958A95E1F7ED51CD
:10071000FD4F8081880FC416D506E606F70610F156
:1007200080832F5F3F4F085F1F4F2832310589F6C6
:100730004091E7022091E3028091E402280F3327E1
:10074000331F8091E502280F311D8091E602820F50
:10075000932F911D99274817190681F681E0809300
:10076000F40226CF8160DCCF2091A301260F33272E
:10077000331F21323105ECF42091F301FC0190E0AC
:1007800080E0243069F082E00895A091A3012191D6
:10079000AC014F575E4FA40FB52FB11D2C9301969E
:1007A000861798F38091A301680F6093A30180E0FE
:1007B000089581E008951092F30181E08093F201A1
:1007C0001092CD0161E082E10E94D10161E083E1FC
:1007D0000E94D101E9EBF0E080818E7F80838081EF
:1007E0008D7F808388E48093B80085E48093BC008B
:1007F0000895CF93DF9391E0909380018823B9F01F
:10080000C091B800D091BA008091BC008A7B8093DF
:10081000BC0060E082E10E94D10160E083E10E94BF
:10082000D1010E94DB03D093BA00C093B800DF91DE
:10083000CF910895CF92DF92EF92FF920F931F9383
:10084000CF93DF93D0911C0281E0D13208F09CC09D
:10085000C0911B020E944E026B017C018091F3014A
:1008600081116CC082E08093F30181E08093F201FA
:100870008FEF8093F1011092F001D093EF01ABEF75
:10088000B1E0EFECF1E080E0D8138DC01092CE0122
:100890008091CE01CC0FC82BC093CE018091CD01A9
:1008A000813009F084C01092CD010E944E026B018C
:1008B0007C018091CE018093BB008091F5019091E5
:1008C000F601A091F701B091F801892B8A2B8B2BAF
:1008D000A1F00E944E020091F5011091F6012091C5
:1008E000F7013091F8016C197D098E099F090617EF
:1008F00017072807390708F442C08091BC0083FD20
:10090000D8CF85EC8093BC000E944E026B017C0125
:100910008091F301823009F44CC08091F1018F3F46
:1009200009F469C08091F101803209F466C08091B8
:10093000F101803309F463C084E026C08091F501A1
:100940009091F601A091F701B091F801892B8A2BC3
:100950008B2B09F483CF0E944E020091F501109178
:10096000F6012091F7013091F8016C197D098E098B
:100970009F09061717072807390708F06FCF8091DE
:10098000F4010E94F90385E01092FA0110921C0212
:100990001092F901DF91CF911F910F91FF90EF908D
:1009A000DF90CF9008959D9191938F5F6DCF85EEED
:1009B000A9CF8091F5019091F601A091F701B09136
:1009C000F801892B8A2B8B2B09F4A2CF0E944E02AF
:1009D0000091F5011091F6012091F7013091F80195
:1009E0006C197D098E099F09061717072807390713
:1009F00008F08ECFC4CF80E0C7CF82E0C5CF83E0C0
:100A0000C3CF089508950895E0917F0180917E01FC
:100A1000E81730F4F0E0E25AFE4F808190E008954C
:100A20008FEF9FEF089590917F0180917E012FEFCE
:100A30003FEF981748F4E92FF0E0E25AFE4F20818B
:100A400030E09F5F90937F01C901089580917E01FE
:100A500090917F01891B990B0895CF92DF92EF92BD
:100A6000FF920F931F93CF93DF937C01CB018A01F9
:100A70002091F901222389F0EB016B01C40ED51EF0
:100A8000CC15DD0569F06991D701ED91FC910190DC
:100A9000F081E02DC7010995F3CF642F0E94B403C4
:100AA000C801DF91CF911F910F91FF90EF90DF90E0
:100AB000CF900895CF93DF931F92CDB7DEB76983B0
:100AC0002091F9012223F9F020911C02203258F0E4
:100AD00021E030E0FC013383228390E080E00F903E
:100AE000DF91CF9108958091FA01E82FF0E0E55071
:100AF000FE4F998190838F5F8093FA0180931C024F
:100B000081E090E0ECCF61E0CE0101960E94B40359
:100B1000F7CF21E001C0220F6A95EAF7DC011C96AD
:100B20002C931C971A965C934E931997ED91FC9118
:100B30000484F585E02D60E00994DC01ED91FC91E1
:100B40000684F785E02D41E0099581E090E0089565
:100B5000DC01ED91FC910684F785E02D40E00994DD
:100B6000CF93DF93CDB7DEB728970FB6F894DEBFEB
:100B70000FBECDBF40910001509101016091020173
:100B8000709103014D835E836F83788740910401E8
:100B900050910501609106017091070149835A83C4
:100BA0006B837C832091D102821710F08FEF820F2C
:100BB00090E03091D2028C0F9D1FFC01303181F406
:100BC000243071F4618160688AEC92E028960FB657
:100BD000F894DEBF0FBECDBFDF91CF910C94A80576
:100BE0006581F1CF0F931F93CF93DF93EC014230D8
:100BF00018F08C8188608C834F836887222329F0CA
:100C0000413019F48C8184608C8364E670E080E06C
:100C100090E00E9473026C8164FD5CC0E881F98100
:100C20000684F785E02D42E063E0CE0109958BE470
:100C300096E40197F1F7E881F9810684F785E02DC4
:100C400042E063E0CE01099503E512E0C801019797
:100C5000F1F7E881F9810684F785E02D42E063E051
:100C6000CE010995C8010197F1F7E881F981068461
:100C7000F785E02D42E062E0CE010995C8010197B9
:100C8000F1F76C816062CE010E94A8058BEE90E0C6
:100C90000197F1F784E08D836CE0CE010E94A805F6
:100CA00061E0CE010E94A8058BE39FE10197F1F777
:100CB00082E08E8366E0CE010E94A805E881F9817A
:100CC0000484F585E02D6FEFCE01DF91CF911F9168
:100CD0000F9109946062CE010E94A8058BE496E40E
:100CE0000197F1F76C816062CE010E94A80503E5CF
:100CF00012E0C8010197F1F76C816062CE010E9499
:100D0000A805BCCF08950895089590E080E0089567
:100D1000FC0123812223E1F08181682B60838281A1
:100D200091E09093F90180931B021092FA011092C6
:100D30001C028EEB92E00E945A050E941A04282F92
:100D400030E081E090E0232B11F090E080E0089506
:100D500030E020E0F6CFEF92FF920F931F93CF93F6
:100D60008C01FC0184E0C0E0262F30E060FF02C06F
:100D70009589C92BB9017595679581503196811177
:100D8000F3CF413011F4F8014489F8016585C62B91
:100D9000C42B7801FEE0EF0EF11CF80162896C2B88
:100DA000C7010E948806F801628960956C23C7011B
:100DB000CF911F910F91FF90EF900C9488060F93A5
:100DC0001F93CF93DF93062F0F70423041F440E022
:100DD000602FDF91CF911F910F910C94AB06142FD0
:100DE000EC0170E084E0759567958A95E1F7CE0196
:100DF0000E94AB06412F602FCE01EBCFFC01848512
:100E00008823A1F0218532852115310521F4611156
:100E100007C0158606C021303105D9F76111F9CF19
:100E200085876585CF010E960C9488060895EF920C
:100E3000FF920F931F93CF93DF93EC01062FF42EB5
:100E4000E22E8B85888B10927F0110927E0110928A
:100E5000FA0110921C020E94DB0381E095E090935E
:100E6000A2018093A10182E095E09093A601809376
:100E7000A501888911E01093F90180931B020E945B
:100E80001A0481111CC0198B8EEB92E00E9413058D
:100E90008E878989882339F01F861C8260E0CE0105
:100EA0000E960E9488062E2D4F2D602FCE01DF91C9
:100EB000CF911F910F91FF90EF900C94F205198A3A
:100EC000E8CF8F929F92AF92BF920F931F93CF93D1
:100ED000DF93CDB7DEB7A1970FB6F894DEBF0FBE94
:100EE000CDBF19A2423008F44AE08E010F5D1F4FBA
:100EF000842E912CB12CA12CA50194010E945B0D94
:100F0000E62FB901CA01EA3044F5E05DD801EE935D
:100F10008D01232B242B252B79F790E080E010976F
:100F200069F0FD0101900020E9F73197AF014A1BFC
:100F30005B0BBD018AEC92E00E94A401A1960FB662
:100F4000F894DEBF0FBECDBFDF91CF911F910F91FF
:100F5000BF90AF909F908F900895E95CD7CFCF92CC
:100F6000DF92EF92FF92CF93DF936B017C016DE2F2
:100F70008AEC92E00E949D05EC0166277727CB0161
:100F80006C197D098E099F094AE00E9461078C0F48
:100F90009D1FDF91CF91FF90EF90DF90CF9008954C
:100FA000FC0101900020E9F73197AF01481B590B74
:100FB000BC018AEC92E00C94A4010E94830D85EDA3
:100FC0008093BC008091F5019091F601A091F7010A
:100FD000B091F8010796A11DB11D23E0B695A79524
:100FE000979587952A95D1F72091BC0024FD03C0E1
:100FF0001092F30108954091F5015091F60160912E
:10100000F7017091F801452B462B472B69F30097A8
:10101000A105B10541F025E32A95F1F700000197FC
:10102000A109B109E1CF8091F4010C94F9031F9259
:101030000F920FB60F9211242F933F934F935F930C
:101040006F937F938F939F93AF93BF93EF93FF9390
:1010500081E292E00E940101FF91EF91BF91AF9177
:101060009F918F917F916F915F914F913F912F91C0
:101070000F900FBE0F901F9018951F920F920FB6F2
:101080000F9211242F938F939F93EF93FF93E091EF
:101090003102F09132028081E0913702F091380202
:1010A00082FD1BC0908180913A028F5F8F732091E7
:1010B0003B02821741F0E0913A02F0E0EF5DFD4F14
:1010C000958F80933A02FF91EF919F918F912F918D
:1010D0000F900FBE0F901F9018958081F4CF1F9234
:1010E0000F920FB60F9211242F933F938F939F93DC
:1010F000AF93BF9380911D0290911E02A0911F0299
:10110000B09120023091C80123E0230F2D3758F50C
:101110000196A11DB11D2093C80180931D029093DB
:101120001E02A0931F02B09320028091C9019091EA
:10113000CA01A091CB01B091CC010196A11DB11DB6
:101140008093C9019093CA01A093CB01B093CC01C5
:10115000BF91AF919F918F913F912F910F900FBEB3
:101160000F901F90189526E8230F0296A11DB11D20
:10117000D2CF1F920F920FB60F9211242F933F934D
:101180004F935F936F937F938F939F93AF93BF938F
:10119000EF93FF938091B900887F803609F44AC0AD
:1011A000F0F5883209F4A7C018F5803109F49BC026
:1011B000B8F4882309F4F9C0883009F494C0FF9189
:1011C000EF91BF91AF919F918F917F916F915F91BF
:1011D0004F913F912F910F900FBE0F901F90189538
:1011E000883109F488C0803251F78093F10114C02E
:1011F000803409F49DC040F48033B9F38833F9F6A4
:101200008093F10185ECB0C0803509F485C0883544
:1012100009F496C0883499F60E94DF07D0CF883948
:1012200009F48CC038F5883729F050F4883611F06D
:10123000803729F683E08093F3011092C70157C0ED
:10124000883809F47BC0803919F0803809F0B7CFAD
:101250008091C701803208F071C0E091C70181E040
:101260008E0F8093C7018091BB00F0E0E955FE4FDF
:1012700080833DC0803B39F0E0F4803A09F479C0C6
:10128000883A09F09CCF84E08093F3011092A40186
:101290001092A301E091A101F091A2010995809122
:1012A000A30181110FC081E08093A30110928101FD
:1012B00009C0803C09F4A6CF883C09F4A3CF883B41
:1012C00009F07DCFE091A40181E08E0F8093A4010D
:1012D000F0E0EF57FE4F80818093BB009091A40116
:1012E0008091A30129C08091CE018093BB0085EC41
:1012F0008093BC0064CF9091F0018091EF0198172A
:1013000058F5E091F00181E08E0F8093F001F0E05C
:10131000E153FE4F8081E9CFE091F00181E08E0F33
:101320008093F0018091BB00F0E0E153FE4F808399
:101330009091F0018091EF019817C8F285E8D8CF1D
:10134000E091F00181E08E0F8093F0018091BB006D
:10135000F0E0E153FE4F80838091F20181115CCF78
:1013600081E08093CD0184EA8093BC001092F30168
:1013700026CF85EC8093BC001092F3018091C701C9
:10138000803230F4E091C701F0E0E955FE4F108261
:101390006091C70170E0E091A501F091A60187EA94
:1013A00091E009951092C7010ACF1092F10134CF54
:1013B000E1E2F2E01382128288EE93E0A0E0B0E076
:1013C00084839583A683B7832CE031E03183208327
:1013D00025EC30E03587248724EC30E037872687FA
:1013E00020EC30E0318B208B21EC30E0338B228BF2
:1013F00022EC30E0358B248B26EC30E0378B268BCB
:10140000118E128E138E148EEEEBF2E01382128286
:1014100084839583A683B7838EE191E09183808353
:10142000A3EEB2E082E015968C9315979BE016969A
:101430009C931697E0EBF0E0E4911796EC931797E6
:10144000ECE9F0E0E4911896EC93189740E85EE33D
:1014500060E070E01D964D935D936D937C93509783
:10146000EAECF2E01382128220E331E03183208340
:10147000108A9FEF97871686118A97E293871486C2
:1014800015861286118694E0928B838B81E0848B83
:1014900080E1858B80E2868B80E4878B80E8808F7B
:1014A00050E040E063E0CF010C948905789484B566
:1014B000826084BD84B5816084BD85B5826085BD50
:1014C00085B5816085BD80916E00816080936E00DE
:1014D00010928100809181008260809381008091D0
:1014E0008100816080938100809180008160809381
:1014F00080008091B10084608093B1008091B00041
:1015000081608093B00080917A00846080937A003B
:1015100080917A00826080937A0080917A00816065
:1015200080937A0080917A00806880937A0010928C
:10153000C10020E042E060E18AEC92E00E941707DF
:101540006FEF8AEC92E00E94FE0662E08091E80272
:101550000E941D022FB7F89480911D0290911E02E7
:10156000A0911F02B09120022FBF805D9740A1097A
:10157000B1098093EC029093ED02A093EE02B09338
:10158000EF0287E38093F502C0E0D0E00E94A5025D
:10159000882349F08091E9028B3028F08D3040F0AB
:1015A00085518230A8F160E070E080EC9FE71CC0BC
:1015B0006091E40270E090E080E00E94620C2DEC0B
:1015C0003CEC4CEC5DE30E94EE0C6B017C01609105
:1015D000E30270E090E080E00E94620C9B01AC01AD
:1015E000C701B6010E94BE0B0E942A0C6B010E942B
:1015F000A502882341F08091E9028C3009F495C05E
:10160000C8F48B3081F160E070E080EC9FE753C05C
:101610006091E3027091E40276276727762790E0D5
:1016200080E00E94600C2DEC3CEC4CEC5DE30E94F1
:10163000EE0CDACF8551823030F71091E502612F40
:1016400070E0762F662766277F778091E602682B09
:1016500090E080E00E94600C2DEC3CEC4CEC5DE3F3
:101660000E94EE0C7EC06091E50270E090E080E0A8
:101670000E94600C4B015C011091E60217FF0AC04A
:10168000AC019B0160E070E080E89FEB0E94BD0B25
:101690004B015C011F70612F70E090E080E00E94C0
:1016A000620C2DEC3CEC4CEC5DE30E94EE0CA501D1
:1016B00094010E94BE0B0E942A0C4B0180E00E9404
:1016C000B00580E491E00E94D007B401990C880B2A
:1016D000990B97FF4AC00E94AF078EE491E00E94E9
:1016E000D00781E00E94B00580E591E00E94D0071C
:1016F000B601DD0C880B990B97FF3BC00E94AF072A
:101700008BE591E00E94D00768EC70E080E090E00B
:101710000E947302209709F439CF0E949001882318
:1017200009F434CF0E94000031CF1091E502612FFF
:1017300070E090E080E00E94600C4B015C016091E1
:10174000E6026F7070E090E080E00E94620C2DEC89
:101750003CEC4CEC5DE30E94EE0CA50194010E9470
:10176000BE0B17FFA8CF9058A6CF4AE00E94610792
:10177000B4CF4AE00E946107C3CF5058BB27AA27C5
:101780000E94D50B0C94B40C0E94A60C38F00E9459
:10179000AD0C20F039F49F3F19F426F40C94A30CFF
:1017A0000EF4E095E7FB0C949D0CE92F0E94C50C0C
:1017B00058F3BA17620773078407950720F079F486
:1017C000A6F50C94E70C0EF4E0950B2EBA2FA02D85
:1017D0000B01B90190010C01CA01A0011124FF27DE
:1017E000591B99F0593F50F4503E68F11A16F040D9
:1017F000A22F232F342F4427585FF3CF46953795D8
:101800002795A795F0405395C9F77EF41F16BA0B9C
:10181000620B730B840BBAF09150A1F0FF0FBB1F4A
:10182000661F771F881FC2F70EC0BA0F621F731F93
:10183000841F48F4879577956795B795F7959E3FF0
:1018400008F0B0CF9395880F08F09927EE0F979581
:10185000879508950E94310C6894B1110C94E80C9E
:1018600008950E94CD0C88F09F5798F0B92F9927C2
:10187000B751B0F0E1F0660F771F881F991F1AF07B
:10188000BA95C9F714C0B13091F00E94E70CB1E0ED
:1018900008950C94E70C672F782F8827B85F39F0EC
:1018A000B93FCCF3869577956795B395D9F73EF414
:1018B00090958095709561957F4F8F4F9F4F0895BC
:1018C000E89409C097FB3EF49095809570956195DA
:1018D0007F4F8F4F9F4F9923A9F0F92F96E9BB2790
:1018E0009395F695879577956795B795F111F8CF0C
:1018F000FAF4BB0F11F460FF1BC06F5F7F4F8F4F77
:101900009F4F16C0882311F096E911C0772321F06C
:101910009EE8872F762F05C0662371F096E8862F04
:1019200070E060E02AF09A95660F771F881FDAF75B
:10193000880F9695879597F9089597F99F6780E89E
:1019400070E060E008959FEF80EC089500240A9411
:101950001616170618060906089500240A9412168A
:101960001306140605060895092E0394000C11F4BD
:10197000882352F0BB0F40F4BF2B11F460FF04C06A
:101980006F5F7F4F8F4F9F4F089557FD9058440FC3
:10199000551F59F05F3F71F04795880F97FB991FCE
:1019A00061F09F3F79F0879508951216130614068B
:1019B000551FF2CF4695F1DF08C016161706180618
:1019C000991FF1CF86957105610508940895E894F3
:1019D000BB2766277727CB0197F908950E94010D51
:1019E0000C94B40C0E94A60C38F00E94AD0C20F0B0
:1019F000952311F00C949D0C0C94A30C11240C94C1
:101A0000E80C0E94C50C70F3959FC1F3950F50E050
:101A1000551F629FF001729FBB27F00DB11D639FA0
:101A2000AA27F00DB11DAA1F649F6627B00DA11D46
:101A3000661F829F2227B00DA11D621F739FB00DEC
:101A4000A11D621F839FA00D611D221F749F33275C
:101A5000A00D611D231F849F600D211D822F762FF5
:101A60006A2F11249F5750409AF0F1F088234AF0D2
:101A7000EE0FFF1FBB1F661F771F881F915050403E
:101A8000A9F79E3F510580F00C949D0C0C94E80C36
:101A90005F3FE4F3983ED4F3869577956795B795C5
:101AA000F795E7959F5FC1F7FE2B880F911D9695DF
:101AB000879597F90895A1E21A2EAA1BBB1BFD0179
:101AC0000DC0AA1FBB1FEE1FFF1FA217B307E4071D
:101AD000F50720F0A21BB30BE40BF50B661F771F75
:101AE000881F991F1A9469F7609570958095909555
:101AF0009B01AC01BD01CF010895EE0FFF1F0590C2
:101B0000F491E02D099481E090E0F8940C94880D14
:041B1000F894FFCF77
:101B14000040145400401050000000002301A401B0
:101B2400C4007001F500D300E700000000005A056E
:101B34002D05850603052605130504050000000090
:101B44009D05A4018506840617078905FE06DF06A0
:101B540054656D70657261747572613A200043005A
:0E1B640057696C676F746E6F3A2000250000A1
:00000001FF
